:020000040800F2
:1000000000500020192600086D2500086F25000803
:100010007125000873250008752500080000000000
:10002000000000000000000000000000772500082C
:1000300079250008000000007B25000861260008E3
:100040006126000861260008612600086126000874
:100050006126000861260008612600086126000864
:100060006126000861260008612600086126000854
:100070007D250008912500086126000861260008FA
:100080006126000861260008612600086126000834
:100090006126000861260008612600086126000824
:1000A000612600089D2500086126000861260008D9
:1000B000A9250008612600086126000861260008BD
:1000C00061260008612600086126000861260008F4
:1000D00061260008B5250008C12500086126000832
:1000E0006126000861260008612600080000000063
:1000F0000000000000000000000000000000000000
:0C01000000000000000000005FF808F1A3
:10010C0010B5054C237833B9044B13B10448AFF345
:10011C0000800123237010BDB000002000000000FF
:10012C00BC26000808B5034B1BB103490348AFF3C9
:10013C00008008BD00000000B4000020BC260008B0
:10014C00074A08B51368032043F01003136000F04E
:10015C006DFA002002F0C8F901F0F4FF002008BD90
:10016C0000200240034A044B11681B780B441360B7
:10017C00704700BFA401002000000020014B18684C
:10018C00704700BFA401002038B50446FFF7F6FF06
:10019C000546631C1EBF044B1B78E418FFF7EEFFEB
:1001AC00401B8442FAD838BD000000200368D86C8C
:1001BC0070470000002373B5019390F82430012B95
:1001CC0074D001234D6880F82430062D02684FEA64
:1001DC0085030C6825D82B441F25566B053B9D4089
:1001EC0026EA050504FA03F32B435363092C4FEA63
:1001FC0044038D682FD907262344D1681E3B9E40AB
:10020C0021EA060105FA03F30B43D360A4F11003B2
:10021C00012B2BD90023002280F82420184602B091
:10022C0070BD0C2D0BD82B441F25166B233B9D400A
:10023C0026EA050504FA03F32B431363D6E72B4494
:10024C001F25D66A413B9D4026EA050504FA03F3B7
:10025C002B43D362CAE70726116923449E4021EA47
:10026C00060105FA03F30B431361CFE7104B9A42D7
:10027C0016D193681B02CDD49368102C43F4000361
:10028C009360C7D10B4B0C4A1B68B3FBF2F20A23E9
:10029C0053430193019B002BBCD0019B013BF8E71E
:1002AC00836A43F0200383620123B4E70223B5E79A
:1002BC0000240140AC00002040420F00002373B525
:1002CC000193036804469A68D20702D5002002B055
:1002DC0070BD9A6842F001029A60124B124A1B6878
:1002EC00B3FBF2F30193019BC3B9FFF747FF06463B
:1002FC0023689D6815F00105E8D1FFF73FFF801BCF
:10030C000228F5D9A36A84F8245043F01003A362A1
:10031C00E36A012043F00103E362D8E7019B013B50
:10032C00E0E700BFAC00002040420F0090F8243002
:10033C0010B5012B044654D0012380F82430FFF76C
:10034C00BDFF002849D1A36A274A23F4407323F048
:10035C00010343F48073A3622368934204D12349BD
:10036C004A6812F4702F2ED1A26A22F48012A26273
:10037C005A68520541BFA26A22F4405242F480529C
:10038C00A262A26A12F480521CBFE26A22F0060238
:10039C00E262002284F824206FF002021A609A684C
:1003AC0002F46022B2F5602F13D10F4A934205D1AB
:1003BC00A2F58062526812F4702F0AD19A6842F446
:1003CC00A0029A6010BDA26A42F48012A2624A682E
:1003DC00CFE79A6842F48012F3E7002384F82430C4
:1003EC0010BD022010BD00BF0028014000240140B8
:1003FC0038B5036804469A68D20701D4002038BD8A
:10040C009A6822F001029A60FFF7B8FE054623684D
:10041C009B68DB07F2D5FFF7B1FE401B0228F6D92B
:10042C00A36A012043F01003A362E36A43F00103C3
:10043C00E36238BD70B50446002871D0836A23B9D5
:10044C00C36280F8243001F09FFE2046FFF7D0FFF6
:10045C00A36A13F0100FA36A64D1002862D1E1697A
:10046C0023F48853626823F0020343F002030A4327
:10047C00A168A362237BB1F5807F42EA430238D0A6
:10048C00012914BF06464FF48076257D012D07D136
:10049C00002B30D1A369013B46EA433545F4006695
:1004AC002368B1F5807F5D6825F4694545EA06054A
:1004BC005D609E681D4D05EA060545EA02059D60D6
:1004CC0001D0012920D1216901390905DD6A25F402
:1004DC0070052943D9629968154B0B409A4215D186
:1004EC000023E362A36A23F0030343F00103A36236
:1004FC0070BD0E46C9E7A36A43F02003A362E36A0A
:10050C0043F00103E362CBE70021DFE7A36A23F0AA
:10051C00120343F01003A362E36A43F00103E362A6
:10052C00012070BD43F01003A362F9E7FDF7E1FF72
:10053C00FE0E1FFF38B5044600286ED090F8203010
:10054C000BB901F04FFE2268136823F0020313600D
:10055C00FFF714FE054623685A68910751D41A68B0
:10056C0042F001021A60FFF709FE054623685A683B
:10057C00D20754D5227E0020012A1A680CBF42F003
:10058C00800222F080021A60627E012A1A680CBF77
:10059C0042F0400222F040021A60A27E012A1A6840
:1005AC000CBF42F0200222F020021A60E27E012AE7
:1005BC001A680CBF22F0100242F010021A60227F5F
:1005CC00012A1A680CBF42F0080222F008021A60D5
:1005DC00627F012A1A680CBF42F0040222F0040266
:1005EC001A60E168A2680A4321690A4361690A43F7
:1005FC00616801390A43DA610123606284F82030B2
:10060C0038BDFFF7BBFD401B0A28A4D9636A43F42D
:10061C0000336362052384F82030012038BDFFF7D6
:10062C00ADFD401B0A28A1D9F0E70000074A0002E3
:10063C00D36800F4E06023F4E0631B041B0C43F06C
:10064C00BF6343F400330343D360704700ED00E015
:10065C00174B30B5DC68C4F30224C4F10703251D25
:10066C00042B28BF0423062D4FF0010598BF00244E
:10067C0005FA03F303F1FF3388BF033C1940A14093
:10068C0005FA04F4013C2240002842EA01024FEA38
:10069C000212A9BF00F16040064BD2B200F56140D6
:1006AC00BBBF00F00F00D2B280F800231A5430BD4B
:1006BC0000ED00E014ED00E0002808DB0123420906
:1006CC0000F01F0003FA00F0014B43F822007047C2
:1006DC0000E100E010B530B314220168134B8468BC
:1006EC000B44B3FBF2F39B000364114B0A68C36326
:1006FC00436822F47F522343C46822F03002234320
:10070C00046923434469234384692343C469234311
:10071C0013430B600122002380F82120836380F8AF
:10072C002030184610BD012010BD00BFF8FFFDBFE2
:10073C000000024090F8213010B5022B03D00423A6
:10074C008363012010BD03681A6822F00E021A6040
:10075C001A6822F001021A60184A93421FD0143210
:10076C0093421ED0143293421DD0143293421DD0AA
:10077C00143293421DD0143293420CBF4FF48013A9
:10078C004FF080730E4A00245360012380F821300F
:10079C00436B80F820407BB19847204610BD012365
:1007AC00F0E71023EEE74FF48073EBE74FF4805340
:1007BC00E8E74FF48033E5E7184610BD0800024027
:1007CC000000024070B40425C66B026C34680368E8
:1007DC0095402542196832D04D0730D51A689606D7
:1007EC005EBF1A6822F004021A603E4A934219D086
:1007FC001432934218D01432934217D014329342CD
:10080C0017D01432934217D0143293420CBF4FF4CA
:10081C0080034FF08063344A5360C36A002B5ED070
:10082C0070BC18470423F6E74023F4E74FF48063C9
:10083C00F1E74FF48043EEE74FF48023EBE702251A
:10084C009540254235D08D0733D51A68940606D4C9
:10085C001A6822F00A021A60012280F82120214A2B
:10086C00934219D01432934218D01432934217D0B9
:10087C001432934217D01432934217D0143293424D
:10088C000CBF4FF400134FF00073174A5360002352
:10089C0080F82030836AC1E70223F6E72023F4E7CF
:1008AC004FF40073F1E74FF40053EEE74FF40033CD
:1008BC00EBE708259540254211D009070FD519689B
:1008CC0021F00E011960012303FA02F272608363B6
:1008DC0080F82130002380F82030036B9EE770BC39
:1008EC00704700BF08000240000002402DE9F74F9E
:1008FC0000242646664BDFF8A8E1DFF8A8C10A6899
:10090C0032FA06F502D103B0BDE8F08F4FF00108C2
:10091C0008FA06F802EA080290457FD14D68122DBC
:10092C0000F0AA8000F28380022D00F0A28077D81C
:10093C00002D00F08980012D00F099804FF00F09F7
:10094C00FF2A93BF824606F18045083DD0F800B0DF
:10095C0092BFB500D0F804B0AD0009FA05F82BEA47
:10096C00080804FA05F588BF00F1040A48EA0505F1
:10097C00CAF80050D1F804A01AF0805F4ED0454D53
:10098C00444FAD6926F0030845F00105BD61BD6912
:10099C0008F1804805F00105019508F5803806F04E
:1009AC00030B019D4FEA8B0BD8F8085009FA0BF991
:1009BC0025EA0909384DA84263D005F58065A8429F
:1009CC0061D005F58065A8425FD005F58065A84229
:1009DC000CBF0325042505FA0BF545EA0905C8F8F3
:1009EC0008501D681AF4803F14BF154395431D60D1
:1009FC005D681AF4003F14BF154395435D609D6814
:100A0C001AF4801F14BF154395439D60DD681AF4DA
:100A1C00001F14BF2A4325EA0202DA6001366EE792
:100A2C00032D22D0112D89D1CC68043486E71B4FBD
:100A3C00BD4209D012D8DFF870904D4504D009F5AD
:100A4C0080394D457FF47AAF8C68C4B1012C0CBF52
:100A5C00C0F81080C0F8148008246FE77545F3D0F7
:100A6C006545F1D0DFF84490EBE7002466E7CC68ED
:100A7C0064E7CC68083461E7CC680C345EE7042486
:100A8C005CE70025A7E70125A5E70225A3E700BF42
:100A9C000004014000100240000801400000211039
:100AAC000000311000003210000011100000221064
:100ABC008368194214BF0120002070470AB10161FC
:100ACC0070470904FBE7C3680B4214BF4161016125
:100ADC00704700002DE9F341054608B901203CE0C0
:100AEC000368DB0710D42B689F075DD42B681907AC
:100AFC0000F194802B685A0700F1BE80E869002849
:100B0C0040F02C81002028E08F4C636803F00C032C
:100B1C00042B07D0636803F00C03082B09D163681E
:100B2C00DE0306D523689C03DDD56B68002BDAD178
:100B3C00D4E76B68B3F5803F12D1236843F480335C
:100B4C002360FFF71BFB064623689803CBD4FFF703
:100B5C0015FB801B6428F7D9032002B0BDE8F08197
:100B6C009BB9236823F480332360236823F4802308
:100B7C002360FFF703FB064623689903B3D5FFF701
:100B8C00FDFA801B6428F7D9E6E7B3F5A02F23689C
:100B9C0003D143F480232360CFE723F48033236015
:100BAC00236823F48023CBE7674C636813F00C0FA6
:100BBC0007D0636803F00C03082B10D16368DA03C9
:100BCC000DD423689B0702D52B69012B86D1236892
:100BDC006A6923F0F80343EAC203236086E72A69B3
:100BEC005A4B6AB101221A60FFF7C8FA064623680D
:100BFC009F07ECD4FFF7C2FA801B0228F7D9ABE7AA
:100C0C001A60FFF7BBFA0646236898077FF56EAFAC
:100C1C00FFF7B4FA801B0228F6D99DE7AA694A4C63
:100C2C004B4BDAB101221A60FFF7A8FA0646636A49
:100C3C009B070DD54FF4FA52464B1B68B3FBF2F3EE
:100C4C00019300BF019B5A1E0192002BF9D151E771
:100C5C00FFF794FA801B0228E9D97DE71A60FFF7A9
:100C6C008DFA0646636A9F077FF544AFFFF786FA55
:100C7C00801B0228F6D96FE7334CE369D80024D4E3
:100C8C000127E36943F08053E361E36903F0805388
:100C9C000093009B304E3368D90518D5EB68012BB7
:100CAC0026D1236A43F001032362FFF767FA41F26E
:100CBC0088368046236A9B073FD5002F3FF41EAF32
:100CCC00E36923F08053E36118E70027E2E7336818
:100CDC0043F480733360FFF751FA80463368DA05CA
:100CEC00DCD4FFF74BFAA0EB08006428F6D933E705
:100CFC00ABB9236A41F2883823F001032362236ADB
:100D0C0023F004032362FFF739FA0646236A980797
:100D1C00D3D5FFF733FA801B4045F7D91CE7052BD9
:100D2C00236A03D143F004032362BAE723F00103DF
:100D3C002362236A23F00403B6E7FFF71FFAA0EB44
:100D4C000800B042B6D907E700100240000042424A
:100D5C0080044242AC000020007000402A4B5A68CC
:100D6C001C4602F00C02082A3DD00023274E022814
:100D7C0033602BD1FFF702FA0746236899011FD481
:100D8C002B6AB3F5803F05D16268A96822F4003262
:100D9C000A436260696A62680B4322F4741213435B
:100DAC00636001233360FFF7E9F9054623689A0174
:100DBC003FF5A8AEFFF7E2F9401B0228F6D9CBE6C7
:100DCC00FFF7DCF9C01B0228D7D9C5E6FFF7D6F927
:100DDC00054623689B017FF595AEFFF7CFF9401BC5
:100DEC000228F6D9B8E601283FF4B7AE58682B6A4A
:100DFC0000F480329A427FF471AE6B6A00F470108A
:100E0C00C01A18BF0120A8E6001002406000424240
:100E1C0030B5194B87B002AC03F1100522461868A7
:100E2C005968083303C2AB421446F7D101238DF83D
:100E3C000430022311498DF805304B6803F00C0285
:100E4C00082A17D1C3F3834206A80244DB0312F825
:100E5C00102C0CD54B680A48C3F34043504306AAE8
:100E6C00134413F8143CB0FBF3F007B030BD054845
:100E7C005043FAE70248F8E7D42600080010024075
:100E8C0000127A0000093D002DE9F0410D460446A0
:100E9C0010B90120BDE8F081454A136803F007033F
:100EAC008B4229D321688E0731D4CA0744D4404AD7
:100EBC00136803F007039D4267D322683D4D12F07F
:100ECC00040F6ED1130706D56B68226923F46053A7
:100EDC0043EAC2036B60FFF79BFF6B68364AC3F3B0
:100EEC000313D35CD840354B1860354B186801F0B0
:100EFC00FBFA0020BDE8F081136823F007030B43D5
:100F0C001360136803F007039942C2D1CAE7294B57
:100F1C0011F0040F1EBF5A6842F4E0625A600807D1
:100F2C0042BF5A6842F460525A605A68A06822F074
:100F3C00F00202435A60B8E762681E4E012A336819
:100F4C001BD113F4003FA4D0736841F2883823F00E
:100F5C00030313437360FFF711F907467368626864
:100F6C0003F00C03B3EB820FA1D0FFF707F9C01B02
:100F7C004045F3D90320BDE8F081022A02D113F0D9
:100F8C00007FE0E713F0020FDDE7136823F007039F
:100F9C002B431360136803F007039D427FF479AF72
:100FAC008BE76B68E16823F4E0630B436B6089E7C4
:100FBC000020024000100240E4260008AC00002093
:100FCC0004000020044B054A5B68C3F30223D35C86
:100FDC00034A1068D840704700100240F4260008FD
:100FEC00AC000020044B054A5B68C3F3C223D35CFE
:100FFC00034A1068D840704700100240F4260008DD
:10100C00AC0000200F2303600B4B5A6802F0030264
:10101C0042605A6802F0F00282605A6802F4E062A0
:10102C00C2605B68DB0803F4E0630361034B1B687D
:10103C0003F007030B6070470010024000200240D1
:10104C0003682DE9F341D907054620D5354CE369F2
:10105C00DA0032D40127E36943F08053E361E3699A
:10106C0003F080530193019B2F4E3368DB0526D58B
:10107C00236A13F4407336D1236A6A6823F44073ED
:10108C00134323621FB1E36923F08053E3612868A3
:10109C00830706D5234AA968536823F440430B43BE
:1010AC00536010F010001BD01E4AE96853680020F2
:1010BC0023F480030B43536012E00027D4E733681A
:1010CC0043F480733360FFF759F880463368D805D2
:1010DC00CED4FFF753F8A0EB08006428F6D9032010
:1010EC0002B0BDE8F0816A6802F440729342C3D04A
:1010FC0001200E4A236A1060002023F44071106016
:10110C002162D907B8D5FFF739F841F2883806467D
:10111C00236A9A07B0D4FFF731F8801B4045F7D902
:10112C00DDE700BF00100240007000404004424266
:10113C0010B50446002834D00023836290F8513057
:10114C0003F0FF021BB980F8502001F083F8022352
:10115C00226884F851301368A06823F040031360B0
:10116C006368A1690343E068034320690343606932
:10117C000343E0690343206A0343A06A034301F479
:10118C000070090C034301F0040113605160D36932
:10119C00002023F40063D3610123606584F851308F
:1011AC0010BD012010BD0000036A70B523F00103CF
:1011BC000362036A446882690D6822F073022A4351
:1011CC008D6823F002032B430A4DA8420BD1CD6846
:1011DC0023F008032B438E694D6924F44074354386
:1011EC0023F004032C43446082614A684263036227
:1011FC0070BD00BF002C0140036A70B523F48073EE
:10120C000362036A4468C2690D6822F073022A43C0
:10121C008D6823F4007343EA05230B4DA8420DD1CE
:10122C00CD6823F4006343EA05238E694D6924F4E9
:10123C004054354323F4806344EA05144460C2618E
:10124C004A68C263036270BD002C0140036A30B56A
:10125C0023F480530362036A4468C2690D6822F464
:10126C00E64242EA05228D6823F4005343EA053333
:10127C00064DA84202BF4D6924F4804444EA85140B
:10128C004460C2614A680264036230BD002C0140B4
:10129C0003680020DA6842F00102DA609A6802F012
:1012AC000702062A1EBF1A6842F001021A60704734
:1012BC00704770477047704770477047036810B5A8
:1012CC001A69044691070ED5DA6892070BD56FF0B0
:1012DC0002021A6101229B6902779B0777D0FFF704
:1012EC00EAFF0023237723681A69500710D5DA68C0
:1012FC0051070DD56FF004021A6102229B69227707
:10130C0013F4407F204668D0FFF7D5FF00232377E6
:10131C0023681A6912070FD5DA6810070CD56FF01D
:10132C0008021A610422DB692277990720465AD0F9
:10133C00FFF7C1FF0023237723681A69D20610D563
:10134C00DA68D0060DD56FF010021A610822DB693D
:10135C00227713F4407F20464BD0FFF7ACFF0023DD
:10136C00237723681A69D10708D5DA68D20705D51F
:10137C006FF0010220461A6100F0D8FE23681A694A
:10138C00100608D5DA68110605D56FF080022046E4
:10139C001A6100F03AFA23681A69520608D5DA681D
:1013AC00500605D56FF0400220461A61FFF785FF05
:1013BC0023681A69910622D5DA6892061FD56FF058
:1013CC0020022046BDE810401A6100F01DBAFFF75C
:1013DC0071FF2046FFF770FF83E7FFF76BFF204696
:1013EC00FFF76AFF92E7FFF765FF2046FFF764FF00
:1013FC00A0E7FFF75FFF2046FFF75EFFAFE710BDEA
:10140C001A4A036890420AD0B0F1804F07D0A2F577
:10141C009432904203D002F58062904215D14A6812
:10142C0023F070031343114A90420AD0B0F1804F5D
:10143C0007D0A2F59432904203D002F5806290421C
:10144C0003D1CA6823F4407313434A6923F0800321
:10145C00134303608B68C3620B688362034B98422F
:10146C0004BF0B690363012343617047002C0140E7
:10147C0010B50446A0B190F83D3003F0FF021BB943
:10148C0080F83C2000F05AFF0223206884F83D309D
:10149C00211DFFF7B5FF0123002084F83D3010BD5E
:1014AC00012010BD10B50446A0B190F83D3003F0FA
:1014BC00FF021BB980F83C20FFF7FAFE02232068DC
:1014CC0084F83D30211DFFF79BFF0123002084F899
:1014DC003D3010BD012010BD38B50D460446E0B1BD
:1014EC0090F83D3003F0FF021BB980F83C20FFF769
:1014FC00E0FE0223211D84F83D302068FFF780FFB9
:10150C00236800201A6822F008021A60196829431F
:10151C001960012384F83D3038BD012038BD00002E
:10152C00036A70B523F010030362036A446882698E
:10153C000D6822F4E64242EA05228D6823F020036E
:10154C0043EA05130B4DA8420DD1CD6823F080035F
:10155C0043EA05138E694D6924F44064354323F046
:10156C00400344EA8504446082614A6882630362F2
:10157C0070BD00BF002C014038B590F83C300446DB
:10158C00012B4FF0020025D0012384F83D0084F894
:10159C003C300C2A18D8DFE802F0071717171E1773
:1015AC0017172F17171740002068FFF7FDFD23684A
:1015BC0009699A6942F008029A619A6922F0040258
:1015CC009A619A690A439A610123002084F83D309C
:1015DC0084F83C0038BD2068FFF7A2FF2368096936
:1015EC009A6942F400629A619A6922F480629A6163
:1015FC009A6942EA0122E6E72068FFF7FDFD2368BD
:10160C000969DA6942F00802DA61DA6922F0040247
:10161C00DA61DA690A43DA61D6E72068FFF716FE69
:10162C0023680969DA6942F40062DA61DA6922F442
:10163C008062DA61DA6942EA0122ECE710B584686B
:10164C000A4324F47F4442EA03232343836010BDFE
:10165C0090F83C3070B5012B04464FF0020019D0C5
:10166C00012384F83D00206884F83C30836823F41F
:10167C007F4323F0770383600B68402B65D015D82C
:10168C00102B0CD007D853B10123002084F83D3027
:10169C0084F83C0070BD202B01D0302BF4D1826833
:1016AC0043F0070322F0700213431AE0602B34D08E
:1016BC0019D8502BE8D14A68CE68016A056A21F026
:1016CC000A0125F00105056283690A4323F0F00342
:1016DC0043EA061383610262836823F0700343F0CC
:1016EC0057038360D0E7702B0CD0B3F5005FCBD1E0
:1016FC00CB684A688968FFF7A1FF2268936843F4B6
:10170C00804308E0CB684A688968FFF797FF226836
:10171C00936843F077039360B6E74D68CE68016A2F
:10172C0021F0100101628269036A22F4704223F0F5
:10173C00A00343EA051342EA06328261036283681E
:10174C0023F0700343F06703CBE74A68CE68016A65
:10175C00056A21F00A0125F00105056283690A4337
:10176C0023F0F00343EA061383610262836823F0DB
:10177C00700343F04703B4E710B50124036A01F08A
:10178C001F018C4023EA04030362036A8A401A4354
:10179C00026210BD10B5044601220068FFF7ECFF91
:1017AC002368094A0020934202BF5A6C42F400425B
:1017BC005A649A6802F00702062A1EBF1A6842F0A1
:1017CC0001021A6010BD00BF002C014090F83C30A3
:1017DC0030B5012B4FF0020314D0046880F83D3073
:1017EC006268A3680D68496822F0700223F08003D8
:1017FC000B432A436260A360012380F83D30002331
:10180C0080F83C30184630BD704770470368DA6882
:10181C0022F49072DA605A6922F001025A61202394
:10182C0080F83A307047000038B505460368C16847
:10183C001A69192422F440520A431A618268006919
:10184C00D9680243686921F4B05121F00C010243BC
:10185C000A43DA605A69A96922F440720A435A6150
:10186C000D4A934214D1FFF7BDFB60436C686422B0
:10187C00A400B0FBF4F0B0FBF2F402FB14031B0168
:10188C003233B3FBF2F3296803EB04138B6038BDDE
:10189C00FFF798FBE9E700BF0038014010B504469C
:1018AC0040B390F8393003F0FF021BB980F83820B0
:1018BC0000F0A2FD2423226884F83930D368204636
:1018CC0023F40053D360FFF7AFFF236800201A699D
:1018DC0022F490421A615A6922F02A025A61DA689B
:1018EC0042F40052DA602023E06384F8393084F843
:1018FC003A3010BD012010BD90F83930202B18D192
:10190C00A9B1A2B190F83830012B12D0C2848284D4
:10191C000023212201620168C36380F83920CA6860
:10192C0080F8383042F08002CA60184670470120B7
:10193C0070470220704790F83A30202B20D1E9B143
:10194C00E2B190F83830012B1AD0C2858285002381
:10195C002222C36380F83A2002688162D16880F841
:10196C00383041F48071D1605169184641F0010161
:10197C005161D16841F02001D1607047012070475E
:10198C0002207047704790F83A3010B5222B36D1B0
:10199C0083680169B3F5805F0268836A23D152685A
:1019AC00E9B9C2F3080223F8022B8362C48D013C0F
:1019BC00A4B2C4858CB90368DA6822F02002DA601C
:1019CC00DA6822F48072DA605A6922F001025A61F4
:1019DC00202380F83A3000F0BDF8002010BDD2B2C0
:1019EC0023F8012BE1E721B9591C526881621A7066
:1019FC00DCE75268591C816202F07F02F7E7022093
:101A0C0010BD7047036870B51A6804461607D9688C
:101A1C005D6907D196065AD58D0658D5BDE870403C
:101A2C00FFF7B1BF15F0010502D111F4907F4ED034
:101A3C00D30705D5CE0542BFE36B43F00103E36347
:101A4C00500704D51DB1E36B43F00203E363930726
:101A5C0004D51DB1E36B43F00403E363160704D50F
:101A6C001DB1E36B43F00803E363E36B002B66D01B
:101A7C00950604D5880602D52046FFF784FF236817
:101A8C0020465D69E26B110702D415F040051AD0AF
:101A9C00FFF7BCFE23685A69520610D55A69606B71
:101AAC0022F040025A6150B1254B4363FEF742FECF
:101ABC00002844D0606BBDE87040436B184720464B
:101ACC00FFF79FFF70BDFFF79CFFE56370BD160627
:101ADC0027D50D0625D594F83920212A2FD1A268B7
:101AEC00B2F5805F226A17D11188C1F308015960E1
:101AFC00216979B902322262E28C013A92B2E28413
:101B0C00EAB9DA6822F08002DA60DA6842F0400260
:101B1C00DA6070BD0132EEE7511C216212785A6016
:101B2C00EAE750060BD54A0609D5DA68204622F0BA
:101B3C004002DA60202384F83930FFF723FF70BDB0
:101B4C00511B000808B50023406AC385C384FFF706
:101B5C0058FF08BD0268094B9A420ED1084A137807
:101B6C00C72B05D8074908780749C85401331370A7
:101B7C00012204490548FFF7DEBE704700440040CF
:101B8C00A001002020020020D8000020BC0C002066
:101B9C00282270B594B00DEB0200002100F080FDFE
:101BAC00142210260DEB0200002100F079FD3246C4
:101BBC00002101A800F074FD022401254FF4C0138C
:101BCC000AA813930A940E950F961194FEF782FFB0
:101BDC000F2305930023294605A80793089309931F
:101BEC000694FFF751F94FF4404301A80194039375
:101BFC00FFF726FA14B070BD002213460649505C5C
:101C0C0001320344622A9BB2F9D1B1F86200C31AC3
:101C1C0058425841704700BFD800002008B58021B9
:101C2C000348FEF745FF002814BF0320012008BD20
:101C3C00000C014010B504460B48FEF7B7FA80B211
:101C4C004F2898BF4B20032C09D14FF47A734B3893
:101C5C00584340F6B57390FBF3F080B210BD012CE5
:101C6C00FCD14B38014BF3E7E802002018FCFFFFD6
:101C7C002DE9F04F102693B0BB4DFEF761FAFFF73C
:101C8C0087FF324600210BA800F00AFDAB69002249
:101C9C003343AB61AB694FF4005133400293029B69
:101CAC00AB69B24843F00403AB61AB69002403F0A9
:101CBC0004030393039BAB694FF0010843F0080343
:101CCC00AB61AB69022703F008030493049BFEF796
:101CDC00F5FE00222121A648FEF7F0FE00224FF26D
:101CEC004001A448FEF7EAFE4FF400530BA99F48AD
:101CFC000B93CDF830800E970D94FEF7F7FD212352
:101D0C000BA99B480B93CDF830800E970D94FEF7E2
:101D1C00EDFD0BA996480B970C940D94FEF7E6FD80
:101D2C004FF240030BA993480B93CDF830800E97DC
:101D3C000D94FEF7DBFD4FF460734FF00C0A0BA90A
:101D4C008C480B93CDF834800C94FEF7CFFD6B6967
:101D5C00224643EA08036B616B69214603EA0803D8
:101D6C0001930C20019BFEF773FC0C20FEF7A4FCE6
:101D7C00224621460D20FEF76BFC0D20FEF79CFC45
:101D8C00DFF834B27C487D4B846080E80808C4607E
:101D9C000461C0F814A08461C461FFF77FFD78482A
:101DAC00784B846080E84800C46004614461047628
:101DBC0044768476C47604774477FEF7BBFB3246D0
:101DCC0021460BA800F06CFC44F620636E4D6F4A64
:101DDC004FF4805985E80C004FF47A732846EB6079
:101DEC00AC602C61AC6107940894FFF741FB0BA924
:101DFC002846CDF82C90FFF72BFC08212846644F81
:101E0C00FFF76AFB07A9284607940894FFF7DEFC46
:101E1C00604B384687E80808BC60FC603C61C7F83A
:101E2C0014A0BC61FC61FFF739FD4FF482735A4872
:101E3C005A49C0F8148080E80A004FF4007383619B
:101E4C001823C361802303620A238460C362C460C5
:101E5C00046144628462FFF76BF93246214607A89D
:101E6C0000F01EFC1C2221460BA80594069400F0E1
:101E7C0017FC4FF080434A4D202685E818003F237D
:101E8C002846EB60AC602C61AC61FFF7F1FA07A956
:101E9C002846CDF81C90FFF7DBFB2846FFF702FB2A
:101EAC0005A9284605960694FFF790FC60230822A6
:101EBC000BA928460B930C960D940F94FFF75CFB23
:101ECC00284600F069FA374E374B304633604FF4F2
:101EDC006023C6F81080F361B46034733475746099
:101EEC000B940C940D94FEF7A5FA04230BA9304621
:101EFC000B93CDF830800D94FEF75CF942462B49DC
:101F0C003846FFF718FD3046FEF710FA2A6808210C
:101F1C00D369284643F00803D361FFF73BFC244DFB
:101F2C0042464FF400411348FEF7C8FDC820FEF7A7
:101F3C002BF9A0462E461F4F4FF400410D4887F851
:101F4C000080DFF87890FEF7BEFD0120FEF71CF94B
:101F5C004FF400410748FEF7B6FD99F800305022C7
:101F6C00002B40F0AB802BE0001002400010014031
:101F7C0000080140000C014018030020003801400B
:101F8C00AC01002000640040E0010020000400408F
:101F9C00BC0C0020004400405C0B002000300140D1
:101FAC00B40B0020E8020020002401402002002095
:101FBC0008000020A001002020A10700A80000209C
:101FCC0029464F48FFF798FC0420FEF7DDF8FFF791
:101FDC0013FEDFF84891DFF848A100287DD10122DB
:101FEC004FF400514748FEF769FDFFF717FEDFF885
:101FFC0034B18BF80000FFF71DFE0423424900B2F8
:10200C00088000EB800090FBF3F044F6206E3F4A12
:10201C00BAF80030108003F51C50103080B27045B7
:10202C009BF8000088BF0C800128B9F8000008BF9D
:10203C001480034471201BB293FBF0F32B70B2F9A4
:10204C000030DAB2900085F84B0098115B42C3F374
:10205C0007235242AB712B73B1F90030D2B26A71C3
:10206C00EA72DAB2C3F30723EB7685F8213000234A
:10207C00AA7685F820201A4685F84C00B15C01320E
:10208C000B444E2A9BB2F9D1214A86F84E3013806C
:10209C001B0A86F84F30DFF890901E4B83F8624095
:1020AC0083F86340B9F80030642B25D94FF4805184
:1020BC001448FEF708FDA9F800403DE71649104802
:1020CC00FFF71AFC134B5B78002B3FF47DAF99F8AC
:1020DC000030013B89F8003076E70E4BD9799A79BC
:1020EC0042EA0122A9F8002093F82020DB7F43EA82
:1020FC000223AAF8003078E70133A9F800301BE777
:10210C00BC0C0020000C0140D6000020D2000020A6
:10211C00CE000020D800002058000020D000002065
:10212C00D4000020CC000020580300200268034B90
:10213C009A4201D1FEF716B8704700BF002C01403F
:10214C00704700000E4B82B09A6942F001029A610E
:10215C009A6902F001020092009ADA6942F0805208
:10216C00DA61DB69074A03F080530193019B5368E2
:10217C0023F0E06343F00073536002B0704700BF7C
:10218C00001002400000014030B51024054687B015
:10219C002246002102A800F083FA2A680F4B9A42CB
:1021AC001AD103F56C439A6902A942F400729A6140
:1021BC009A690B4802F400720092009A9A6942F0F4
:1021CC0004029A619B69029403F004030193019B3E
:1021DC0003230393FEF78AFB07B030BD00240140B4
:1021EC000008014010B5044686B01022002102A858
:1021FC0000F056FA2268154B9A4225D103F5D633D6
:10220C00DA6902A942F00072DA61DA69104802F068
:10221C0000720092009A9A6942F004029A619B69DA
:10222C0003F004030193019B4FF400630293FEF748
:10223C005DFB4FF48053029302230393032302A903
:10224C0003480593FEF752FB06B010BD0064004036
:10225C000008014070B51024064686B022460021C5
:10226C0002A800F01DFA32682D4B9A4255D103F5A5
:10227C0060439A69002542F480529A619A6902A9D6
:10228C0002F480520092009A9A69264842F00802A1
:10229C009A619B6903F008030193019B2823029325
:1022AC000223039303230593FEF720FB1D4802A989
:1022BC00029403950495FEF719FB1B4A1B4C5368BB
:1022CC00204643F0E06343F001035360184BA560D4
:1022DC0084E8280080232561E3606561A561E561E0
:1022EC00FEF7F8F908B1FFF72BFF4FF0100C114B6C
:1022FC00F4646662104C802284E8081000232046A7
:10230C00A360E26023616361A361E361FEF7E2F91C
:10231C0008B1FFF715FFB464666206B070BD00BF6C
:10232C0000300140000C014000000140FC0C00207A
:10233C001C00024030000240440D0020036807B529
:10234C00B3F1804F15D103F50433DA691C2042F048
:10235C000102DA610022DB69114603F001030093EC
:10236C00009BFEF775F91C20FEF7A6F903B05DF88B
:10237C0004FB074A9342F9D1064BDA6942F0020298
:10238C00DA61DB6903F002030193019BEEE700BF06
:10239C00000400400010024010B5044686B0102224
:1023AC00002102A800F07CF92368B3F1804F1DD105
:1023BC0003F504339A6902A942F008029A619B69F9
:1023CC000B4803F008030193019B4FF480630293C5
:1023DC00022303930593FEF789FA064A536823F404
:1023EC00407343F0E06343F40073536006B010BDD8
:1023FC00000C014000000140102210B5044688B0CA
:10240C000DEB0200002100F04BF92368324A934295
:10241C0031D1324B04A99A69314842F480429A6115
:10242C009A69002402F480420092009A9A6942F060
:10243C0004029A619B6903F004030193019B4FF41E
:10244C00007304930223059303230793FEF74EFABC
:10245C004FF4806304A92248049305940694FEF774
:10246C0045FA252022462146FEF7F2F82520FEF7F4
:10247C0023F908B010BD1B4A9342FAD1174B04A99B
:10248C00DA69174842F40032DA61DA69002402F49E
:10249C0000320292029A9A6942F004029A619B6994
:1024AC0003F004030393039B042304930223059377
:1024BC0003230793FEF71AFA082304A90848049388
:1024CC0005940694FEF712FA262022462146FEF7C2
:1024DC00BFF82620CBE700BF0038014000100240B7
:1024EC00000801400044004010B5014688B00022AD
:1024FC001920FEF7ADF81920FEF7DEF8144B01A9F0
:10250C009A6903A842F400629A619B69114C03F426
:10251C0000630293029BFEF775FDFEF763FD0E4B05
:10252C00236040F2E733E3600C4BB0FBF3F0002385
:10253C000138606020462361A360FEF799FF20B943
:10254C002046FEF7A5FE08B010BD0120FBE700BF3A
:10255C0000100240400F0020002C014040420F00B0
:10256C007047FEE7FEE7FEE7FEE7704770477047EF
:10257C000122024B02481A70FEF724B9400D0020CC
:10258C00FC0C00200148FEF71DB900BF440D0020D3
:10259C000148FEF793BE00BF400F00200148FEF734
:1025AC008DBE00BFB40B00200148FFF72BBA00BF53
:1025BC00180300200148FFF725BA00BFBC0C00200F
:1025CC000F4B1A6842F001021A6059680D4A0A4012
:1025DC005A601A6822F0847222F480321A601A68E7
:1025EC0022F480221A605A6822F4FE025A604FF4D8
:1025FC001F029A604FF00062034B9A60704700BF55
:10260C00001002400000FFF800ED00E0002103E0A4
:10261C000B4B5B58435004310A480B4B42189A42FF
:10262C00F6D30A4A02E0002342F8043B084B9A42D4
:10263C00F9D3FFF7C5FF00F00FF8FFF719FB704750
:10264C000427000800000020B0000020B00000208B
:10265C00800F0020FEE7000070B500250C4E0D4CDD
:10266C00A41BA410A54209D100F022F800250A4EA3
:10267C000A4CA41BA410A54205D170BD56F82530F8
:10268C0098470135EEE756F8253098470135F2E7C3
:10269C00FC260008FC260008FC2600080027000881
:1026AC0003460244934200D1704703F8011BF9E73B
:1026BC00F8B500BFF8BC08BC9E467047F8B500BF23
:0826CC00F8BC08BC9E467047F3
:1026D40002030405060708090A0B0C0D0E0F10105F
:1026E40000000000000000000102030406070809BE
:0826F4000000000001020304D4
:0426FC0031010008A0
:042700000D010008BF
:1027040001000000100000000000000000000000B4
:1027140000000000000000000000000000000000B5
:1027240000000000000000000000000000000000A5
:102734000000000000000000000000000000000095
:102744000000000000000000000000000000FF0086
:102754000000000000000000000000000000000075
:102764000000000000000000040000000000000061
:102774000000000000000000000000000004000051
:102784000000000000000000000000000000000045
:102794000000000004001900000000000000800098
:1027A4000000800000002501010000000024F40066
:0400000508002619B0
:00000001FF
