:020000040800F2
:1000000000500020D52000081D2000081F200008F7
:1000100021200008232000082520000800000000FF
:100020000000000000000000000000002720000881
:1000300029200008000000002B2000081D210008D6
:100040001D2100081D2100081D2100081D21000898
:100050001D2100081D2100081D2100081D21000888
:100060001D2100081D2100081D2100081D21000878
:100070001D2100081D2100081D2100081D21000868
:100080001D2100081D2100081D2100081D21000858
:100090001D2100081D2100081D2100081D21000848
:1000A0001D2100082D2000081D2100081D21000829
:1000B0001D2100081D2100081D2100081D21000828
:1000C0001D2100081D2100081D2100081D21000818
:1000D0001D21000839200008452000081D210008C6
:1000E0001D2100081D2100081D210008000000003E
:1000F0000000000000000000000000000000000000
:0C01000000000000000000005FF808F1A3
:10010C0010B5054C237833B9044B13B10448AFF345
:10011C0000800123237010BD0C00002000000000A3
:10012C007821000808B5034B1BB103490348AFF312
:10013C00008008BD0000000010000020782100089D
:10014C00074A08B51368032043F01003136000F04E
:10015C00A9F8002001F020FF01F0AAFD002008BD45
:10016C0000200240034A044B11681B780B441360B7
:10017C00704700BF2C02002000000020014B1868C3
:10018C00704700BF2C02002038B50446FFF7F6FF7D
:10019C000546631C1EBF044B1B78E418FFF7EEFFEB
:1001AC00401B8442FAD838BD0000002038B5044604
:1001BC0000286ED090F820300BB901F09BFD22681E
:1001CC00136823F002031360FFF7D8FF054623687A
:1001DC005A68910751D41A6842F001021A60FFF76D
:1001EC00CDFF054623685A68D20754D5227E0020DD
:1001FC00012A1A680CBF42F0800222F080021A60B9
:10020C00627E012A1A680CBF42F0400222F04002C2
:10021C001A60A27E012A1A680CBF42F0200222F05A
:10022C0020021A60E27E012A1A680CBF22F010022A
:10023C0042F010021A60227F012A1A680CBF42F0A9
:10024C00080222F008021A60627F012A1A680CBFA9
:10025C0042F0040222F004021A60E168A2680A4328
:10026C0021690A4361690A43616801390A43DA6109
:10027C000123606284F8203038BDFFF77FFF401BFC
:10028C000A28A4D9636A43F400336362052384F813
:10029C002030012038BDFFF771FF401B0A28A1D97F
:1002AC00F0E70000074A0002D36800F4E06023F492
:1002BC00E0631B041B0C43F0BF6343F400330343A4
:1002CC00D360704700ED00E0174B30B5DC68C4F329
:1002DC000224C4F10703251D042B28BF0423062D7B
:1002EC004FF0010598BF002405FA03F303F1FF3327
:1002FC0088BF033C1940A14005FA04F4013C22409C
:10030C00002842EA01024FEA0212A9BF00F1604044
:10031C00064BD2B200F56140BBBF00F00F00D2B269
:10032C0080F800231A5430BD00ED00E014ED00E01D
:10033C00002808DB0123420900F01F0003FA00F03B
:10034C00014B43F82200704700E100E090F82130A7
:10035C0010B5022B03D004238363012010BD036866
:10036C001A6822F00E021A601A6822F001021A6052
:10037C00184A93421FD0143293421ED01432934227
:10038C001DD0143293421DD0143293421DD014321E
:10039C0093420CBF4FF480134FF080730E4A00242D
:1003AC005360012380F82130436B80F820407BB1EF
:1003BC009847204610BD0123F0E71023EEE74FF4D9
:1003CC008073EBE74FF48053E8E74FF48033E5E7B5
:1003DC00184610BD08000240000002402DE9F74FFE
:1003EC0000242646664BDFF8A8E1DFF8A8C10A68AE
:1003FC0032FA06F502D103B0BDE8F08F4FF00108D8
:10040C0008FA06F802EA080290457FD14D68122DD1
:10041C0000F0AA8000F28380022D00F0A28077D831
:10042C00002D00F08980012D00F099804FF00F090C
:10043C00FF2A93BF824606F18045083DD0F800B0F4
:10044C0092BFB500D0F804B0AD0009FA05F82BEA5C
:10045C00080804FA05F588BF00F1040A48EA050506
:10046C00CAF80050D1F804A01AF0805F4ED0454D68
:10047C00444FAD6926F0030845F00105BD61BD6927
:10048C0008F1804805F00105019508F5803806F063
:10049C00030B019D4FEA8B0BD8F8085009FA0BF9A6
:1004AC0025EA0909384DA84263D005F58065A842B4
:1004BC0061D005F58065A8425FD005F58065A8423E
:1004CC000CBF0325042505FA0BF545EA0905C8F808
:1004DC0008501D681AF4803F14BF154395431D60E6
:1004EC005D681AF4003F14BF154395435D609D6829
:1004FC001AF4801F14BF154395439D60DD681AF4F0
:10050C00001F14BF2A4325EA0202DA6001366EE7A7
:10051C00032D22D0112D89D1CC68043486E71B4FD2
:10052C00BD4209D012D8DFF870904D4504D009F5C2
:10053C0080394D457FF47AAF8C68C4B1012C0CBF67
:10054C00C0F81080C0F8148008246FE77545F3D00C
:10055C006545F1D0DFF84490EBE7002466E7CC6802
:10056C0064E7CC68083461E7CC680C345EE704249B
:10057C005CE70025A7E70125A5E70225A3E700BF57
:10058C00000401400010024000080140000021104E
:10059C000000311000003210000011100000221079
:1005AC000AB1016170470904FBE7C3680B4214BF31
:1005BC0041610161704700002DE9F341054608B91E
:1005CC0001203CE00368DB0710D42B689F075DD447
:1005DC002B68190700F194802B685A0700F1BE8034
:1005EC00E869002840F02C81002028E08F4C6368DB
:1005FC0003F00C03042B07D0636803F00C03082BE7
:10060C0009D16368DE0306D523689C03DDD56B68CE
:10061C00002BDAD1D4E76B68B3F5803F12D1236895
:10062C0043F480332360FFF7A9FD06462368980343
:10063C00CBD4FFF7A3FD801B6428F7D9032002B0AD
:10064C00BDE8F0819BB9236823F4803323602368D1
:10065C0023F480232360FFF791FD0646236899035A
:10066C00B3D5FFF78BFD801B6428F7D9E6E7B3F50C
:10067C00A02F236803D143F480232360CFE723F416
:10068C0080332360236823F48023CBE7674C6368B3
:10069C0013F00C0F07D0636803F00C03082B10D178
:1006AC006368DA030DD423689B0702D52B69012BF1
:1006BC0086D123686A6923F0F80343EAC2032360F6
:1006CC0086E72A695A4B6AB101221A60FFF756FD78
:1006DC00064623689F07ECD4FFF750FD801B0228C9
:1006EC00F7D9ABE71A60FFF749FD06462368980770
:1006FC007FF56EAFFFF742FD801B0228F6D99DE710
:10070C00AA694A4C4B4BDAB101221A60FFF736FD4D
:10071C000646636A9B070DD54FF4FA52464B1B688D
:10072C00B3FBF2F3019300BF019B5A1E0192002B05
:10073C00F9D151E7FFF722FD801B0228E9D97DE7AB
:10074C001A60FFF71BFD0646636A9F077FF544AFEF
:10075C00FFF714FD801B0228F6D96FE7334CE369D1
:10076C00D80024D40127E36943F08053E361E369A3
:10077C0003F080530093009B304E3368D90518D595
:10078C00EB68012B26D1236A43F001032362FFF7A8
:10079C00F5FC41F288368046236A9B073FD5002F33
:1007AC003FF41EAFE36923F08053E36118E70027A1
:1007BC00E2E7336843F480733360FFF7DFFC804675
:1007CC003368DA05DCD4FFF7D9FCA0EB0800642809
:1007DC00F6D933E7ABB9236A41F2883823F0010329
:1007EC002362236A23F004032362FFF7C7FC064647
:1007FC00236A9807D3D5FFF7C1FC801B4045F7D976
:10080C001CE7052B236A03D143F004032362BAE7E8
:10081C0023F001032362236A23F00403B6E7FFF7F6
:10082C00ADFCA0EB0800B042B6D907E700100240BF
:10083C000000424280044242080000200070004048
:10084C002A4B5A681C4602F00C02082A3DD00023A1
:10085C00274E022833602BD1FFF790FC0746236804
:10086C0099011FD42B6AB3F5803F05D16268A96842
:10087C0022F400320A436260696A62680B4322F414
:10088C0074121343636001233360FFF777FC054652
:10089C0023689A013FF5A8AEFFF770FC401B0228B5
:1008AC00F6D9CBE6FFF76AFCC01B0228D7D9C5E600
:1008BC00FFF764FC054623689B017FF595AEFFF7B7
:1008CC005DFC401B0228F6D9B8E601283FF4B7AE10
:1008DC0058682B6A00F480329A427FF471AE6B6ACE
:1008EC0000F47010C01A18BF0120A8E600100240D6
:1008FC006000424230B5194B87B002AC03F11005D1
:10090C00224618685968083303C2AB421446F7D123
:10091C0001238DF80430022311498DF805304B6802
:10092C0003F00C02082A17D1C3F3834206A8024431
:10093C00DB0312F8102C0CD54B680A48C3F3404368
:10094C00504306AA134413F8143CB0FBF3F007B061
:10095C0030BD05485043FAE70248F8E790210008FB
:10096C000010024000127A0000093D002DE9F04110
:10097C000D46044610B90120BDE8F081454A1368C4
:10098C0003F007038B4229D321688E0731D4CA07A1
:10099C0044D4404A136803F007039D4267D322688E
:1009AC003D4D12F0040F6ED1130706D56B6822690A
:1009BC0023F4605343EAC2036B60FFF79BFF6B6841
:1009CC00364AC3F30313D35CD840354B1860354B10
:1009DC00186801F0E1FA0020BDE8F081136823F0FB
:1009EC0007030B431360136803F007039942C2D14A
:1009FC00CAE7294B11F0040F1EBF5A6842F4E0629B
:100A0C005A60080742BF5A6842F460525A605A68EA
:100A1C00A06822F0F00202435A60B8E762681E4EEA
:100A2C00012A33681BD113F4003FA4D0736841F240
:100A3C00883823F0030313437360FFF79FFB0746CB
:100A4C007368626803F00C03B3EB820FA1D0FFF75D
:100A5C0095FBC01B4045F3D90320BDE8F081022A69
:100A6C0002D113F0007FE0E713F0020FDDE713680B
:100A7C0023F007032B431360136803F007039D4215
:100A8C007FF479AF8BE76B68E16823F4E0630B4389
:100A9C006B6089E70020024000100240A021000892
:100AAC000800002004000020044B054A5B68C3F3D7
:100ABC000223D35C034A1068D840704700100240F0
:100ACC00B021000808000020044B054A5B68C3F302
:100ADC00C223D35C034A1068D84070470010024010
:100AEC00B0210008080000200F2303600B4B5A684C
:100AFC0002F0030242605A6802F0F00282605A6807
:100B0C0002F4E062C2605B68DB0803F4E06303613B
:100B1C00034B1B6803F007030B6070470010024087
:100B2C0000200240F8B504460E4615461F462168C3
:100B3C008A6836EA020301D00020F8BD6B1CF7D09E
:100B4C00FFF71CFBC01B8542F1D823685A6822F0C2
:100B5C00E0025A606268B2F5827F0AD1A268B2F5EF
:100B6C00004F02D0B2F5806F03D11A6822F0400218
:100B7C001A60A26AB2F5005F07D11A6822F400521B
:100B8C001A601A6842F400521A60012384F851303A
:100B9C000023032084F85030F8BD10B513460A46E4
:100BAC0080210446FFF7BEFF20B10320636D43F0A4
:100BBC002003636510BD10B50446002834D0002313
:100BCC00836290F8513003F0FF021BB980F850207B
:100BDC0001F0C8F80223226884F851301368A06829
:100BEC0023F0400313606368A1690343E068034387
:100BFC002069034360690343E0690343206A0343AC
:100C0C00A06A034301F40070090C034301F00401D2
:100C1C0013605160D369002023F40063D361012376
:100C2C00606584F8513010BD012010BD2DE9F743EB
:100C3C001E4690F850300446012B0D4691460A9FF3
:100C4C0000F0E280012380F85030FFF797FA94F817
:100C5C0051308046DBB2012B61680AD0B1F5827F3E
:100C6C0040F0D080A068002840F0CC80042B40F0ED
:100C7C00C980002D00F0C480B9F1000F00F0C080D5
:100C8C00002E00F0BD8094F85130C4F83890042B3D
:100C9C001CBF052384F8513000236365236463640F
:100CAC002368E687E6861A68A687500658BF1A6836
:100CBC00256358BF42F04002A68658BF1A60E2680E
:100CCC00B2F5006F58D109B1012E07D135F8022BBE
:100CDC00DA60E38E2563013B9BB2E3860125E38E4C
:100CEC009BB2ABB9E38F9BB293B9424639462046CF
:100CFC00FFF753FF002840F08180A368002B32D10E
:100D0C0023680190DA6801929B680193019B2AE0A9
:100D1C002268936899070DD5E38E9BB253B14DB100
:100D2C000025236B33F8021BD1602363E38E013B58
:100D3C009BB2E3869368DB070CD5E38F9BB24BB178
:100D4C000125D268A36B23F8022BA363E38F013B2D
:100D5C009BB2E387FFF712FAA0EB08008742BED8DC
:100D6C007E1CBCD00320012384F85130002384F86E
:100D7C00503003B0BDE8F08309B1012E08D12A78B8
:100D8C001A73236B01332363E38E013B9BB2E3861F
:100D9C000125E38E9BB21BB9E38F9BB2002BA4D031
:100DAC002268936898070ED5E38E9BB25BB155B160
:100DBC000025236B1B781373236B01332363E38EA2
:100DCC00013B9BB2E38622689368D9070DD5E38F6C
:100DDC009BB253B10125D268A36B1A70A36B01337C
:100DEC00A363E38F013B9BB2E387FFF7C7F9A0EB4B
:100DFC0008008742CDD87B1CCBD0B3E7202363659A
:100E0C000120B0E70220AEE70220B2E7036A70B51A
:100E1C0023F001030362036A446882690D6822F0BF
:100E2C0073022A438D6823F002032B430A4DA84218
:100E3C000BD1CD6823F008032B438E694D6924F444
:100E4C004074354323F004032C43446082614A68A8
:100E5C004263036270BD00BF002C0140036A70B591
:100E6C0023F480730362036A4468C2690D6822F03C
:100E7C0073022A438D6823F4007343EA05230B4D58
:100E8C00A8420DD1CD6823F4006343EA05238E6993
:100E9C004D6924F44054354323F4806344EA05142B
:100EAC004460C2614A68C263036270BD002C014099
:100EBC00036A30B523F480530362036A4468C26941
:100ECC000D6822F4E64242EA05228D6823F40053B1
:100EDC0043EA0533064DA84202BF4D6924F4804411
:100EEC0044EA85144460C2614A680264036230BDFE
:100EFC00002C014003680020DA6842F00102DA603D
:100F0C009A6802F00702062A1EBF1A6842F0010214
:100F1C001A6070477047704770477047704770474A
:100F2C00036810B51A69044691070ED5DA68920762
:100F3C000BD56FF002021A6101229B6902779B07A5
:100F4C0077D0FFF7EAFF0023237723681A6950074D
:100F5C0010D5DA6851070DD56FF004021A61022220
:100F6C009B69227713F4407F204668D0FFF7D5FFAA
:100F7C000023237723681A6912070FD5DA68100744
:100F8C000CD56FF008021A610422DB6922779907ED
:100F9C0020465AD0FFF7C1FF0023237723681A6934
:100FAC00D20610D5DA68D0060DD56FF010021A6192
:100FBC000822DB69227713F4407F20464BD0FFF7E1
:100FCC00ACFF0023237723681A69D10708D5DA68A8
:100FDC00D20705D56FF0010220461A6100F05EFEC3
:100FEC0023681A69100608D5DA68110605D56FF062
:100FFC00800220461A6100F089FA23681A695206A9
:10100C0008D5DA68500605D56FF0400220461A6103
:10101C00FFF785FF23681A69910622D5DA689206D4
:10102C001FD56FF020022046BDE810401A6100F079
:10103C006CBAFFF771FF2046FFF770FF83E7FFF7ED
:10104C006BFF2046FFF76AFF92E7FFF765FF20462C
:10105C00FFF764FFA0E7FFF75FFF2046FFF75EFF97
:10106C00AFE710BD1A4A036890420AD0B0F1804F26
:10107C0007D0A2F59432904203D002F580629042E0
:10108C0015D14A6823F070031343114A90420AD0D9
:10109C00B0F1804F07D0A2F59432904203D002F504
:1010AC008062904203D1CA6823F4407313434A69A7
:1010BC0023F08003134303608B68C3620B68836265
:1010CC00034B984204BF0B690363012343617047D0
:1010DC00002C014010B50446A0B190F83D3003F04F
:1010EC00FF021BB980F83C2000F07EFE0223206832
:1010FC0084F83D30211DFFF7B5FF0123002084F853
:10110C003D3010BD012010BD10B50446A0B190F8C3
:10111C003D3003F0FF021BB980F83C20FFF7FAFECC
:10112C000223206884F83D30211DFFF79BFF01232B
:10113C00002084F83D3010BD012010BD38B50D469F
:10114C000446E0B190F83D3003F0FF021BB980F883
:10115C003C20FFF7E0FE0223211D84F83D3020687F
:10116C00FFF780FF236800201A6822F008021A603B
:10117C00196829431960012384F83D3038BD0120DA
:10118C0038BD0000036A70B523F010030362036AD4
:10119C00446882690D6822F4E64242EA05228D68B1
:1011AC0023F0200343EA05130B4DA8420DD1CD6863
:1011BC0023F0800343EA05138E694D6924F44064DF
:1011CC00354323F0400344EA8504446082614A6855
:1011DC008263036270BD00BF002C014038B590F8EB
:1011EC003C300446012B4FF0020025D0012384F83B
:1011FC003D0084F83C300C2A18D8DFE802F00717C1
:10120C0017171E1717172F17171740002068FFF70F
:10121C00FDFD236809699A6942F008029A619A698E
:10122C0022F004029A619A690A439A610123002010
:10123C0084F83D3084F83C0038BD2068FFF7A2FFED
:10124C00236809699A6942F400629A619A6922F4E6
:10125C0080629A619A6942EA0122E6E72068FFF708
:10126C00FDFD23680969DA6942F00802DA61DA697E
:10127C0022F00402DA61DA690A43DA61D6E72068FF
:10128C00FFF716FE23680969DA6942F40062DA6135
:10129C00DA6922F48062DA61DA6942EA0122ECE767
:1012AC0010B584680A4324F47F4442EA03232343A1
:1012BC00836010BD90F83C3070B5012B04464FF0A4
:1012CC00020019D0012384F83D00206884F83C30DA
:1012DC00836823F47F4323F0770383600B68402BF0
:1012EC0065D015D8102B0CD007D853B10123002092
:1012FC0084F83D3084F83C0070BD202B01D0302B9D
:10130C00F4D1826843F0070322F0700213431AE011
:10131C00602B34D019D8502BE8D14A68CE68016ABA
:10132C00056A21F00A0125F00105056283690A436B
:10133C0023F0F00343EA061383610262836823F00F
:10134C00700343F057038360D0E7702B0CD0B3F5D8
:10135C00005FCBD1CB684A688968FFF7A1FF226890
:10136C00936843F4804308E0CB684A688968FFF7C8
:10137C0097FF2268936843F077039360B6E74D6854
:10138C00CE68016A21F0100101628269036A22F4BD
:10139C00704223F0A00343EA051342EA063282614D
:1013AC000362836823F0700343F06703CBE74A685A
:1013BC00CE68016A056A21F00A0125F00105056273
:1013CC0083690A4323F0F00343EA06138361026244
:1013DC00836823F0700343F04703B4E7006838B523
:1013EC0083684A6823F070030C68134323F00703E7
:1013FC002343502A83601ED003D8402A0BD00020F0
:10140C0038BD602A27D0702AF9D10B698A68C9685F
:10141C00FFF746FFF3E7052C30D0026A036A09692F
:10142C0023F001030362836923F0F00343EA011301
:10143C0083610262E3E78A680D69016A046A21F03C
:10144C000A0124F00104046283690A4323F0F003C7
:10145C0043EA0513ECE78C680D69016A21F0100171
:10146C0001628269036A22F4704223F0A00342EA0B
:10147C00053243EA041382610362C0E7012038BDE0
:10148C0038B590F83C300446012B4FF002031CD0C9
:10149C00012580F83D3080F83C50FFF79FFF30B1BC
:1014AC00002384F83D5084F83C30284638BD23682E
:1014BC00DA6822F04002DA60DA6822F48042DA60FC
:1014CC0084F83D5084F83C0038BD184638BD90F87F
:1014DC003C3030B5012B4FF0020314D0046880F877
:1014EC003D306268A3680D68496822F0700223F0F1
:1014FC0080030B432A436260A360012380F83D30D4
:10150C00002380F83C30184630BD704770470368A4
:10151C00DA6822F49072DA605A6922F001025A6198
:10152C00202380F83A30704738B505460368C16807
:10153C001A69192422F440520A431A61826800691C
:10154C00D9680243686921F4B05121F00C010243BF
:10155C000A43DA605A69A96922F440720A435A6153
:10156C000D4A934214D1FFF7AFFA60436C686422C2
:10157C00A400B0FBF4F0B0FBF2F402FB14031B016B
:10158C003233B3FBF2F3296803EB04138B6038BDE1
:10159C00FFF78AFAE9E700BF0038014010B50446AE
:1015AC0040B390F8393003F0FF021BB980F83820B3
:1015BC0000F06CFC2423226884F83930D368204670
:1015CC0023F40053D360FFF7AFFF236800201A69A0
:1015DC0022F490421A615A6922F02A025A61DA689E
:1015EC0042F40052DA602023E06384F8393084F846
:1015FC003A3010BD012010BD90F83A30202B20D18C
:10160C00E9B1E2B190F83830012B1AD0C28582854D
:10161C0000232222C36380F83A2002688162D168D9
:10162C0080F8383041F48071D1605169184641F02E
:10163C0001015161D16841F02001D1607047012056
:10164C007047022070477047704790F83A3010B5D9
:10165C00222B36D183680169B3F5805F0268836AF7
:10166C0023D15268E9B9C2F3080223F8022B836232
:10167C00C48D013CA4B2C4858CB90368DA6822F02D
:10168C002002DA60DA6822F48072DA605A6922F099
:10169C0001025A61202380F83A30FFF7D5FF002071
:1016AC0010BDD2B223F8012BE1E721B9591C5268C5
:1016BC0081621A70DCE75268591C816202F07F0269
:1016CC00F7E7022010BD7047036870B51A6804462E
:1016DC001607D9685D6907D196065AD58D0658D577
:1016EC00BDE87040FFF7B1BF15F0010502D111F450
:1016FC00907F4ED0D30705D5CE0542BFE36B43F0A8
:10170C000103E363500704D51DB1E36B43F00203FF
:10171C00E363930704D51DB1E36B43F00403E36368
:10172C00160704D51DB1E36B43F00803E363E36BC9
:10173C00002B66D0950604D5880602D52046FFF707
:10174C0084FF236820465D69E26B110702D415F013
:10175C0040051AD0FFF7DBFE23685A69520610D5F4
:10176C005A69606B22F040025A6150B1254B4363B9
:10177C00FEF7ECFD002844D0606BBDE87040436B75
:10178C0018472046FFF79FFF70BDFFF79CFFE563EE
:10179C0070BD160627D50D0625D594F83920212ABB
:1017AC002FD1A268B2F5805F226A17D11188C1F3DC
:1017BC0008015960216979B902322262E28C013A3E
:1017CC0092B2E284EAB9DA6822F08002DA60DA686E
:1017DC0042F04002DA6070BD0132EEE7511C21622A
:1017EC0012785A60EAE750060BD54A0609D5DA6832
:1017FC00204622F04002DA60202384F83930FFF7CB
:10180C0022FF70BD1518000808B50023406AC38577
:10181C00C384FFF758FF08BD70B50546002862D099
:10182C0090F83D3003F0FF021BB980F83C2000F02B
:10183C0071FB02232A6885F83D30D368E86923F0F0
:10184C000C03D360AB6911690343286A43F400634A
:10185C000343E86821F47C5103430B43136128696B
:10186C00AB68D1680343686921F4B05121F00C01D5
:10187C0003430B43D3605369192423F4407353611E
:10188C001A4B9A422CD1FFF71FF960436C682A68F7
:10189C00A400B0FBF4F06424B0FBF4F604FB1603D4
:1018AC001B013233B3FBF4F303F00F015B0001EBCC
:1018BC00061103F4F0730B4493602B6800201A6933
:1018CC0022F480421A615A6922F02A025A61DA68BB
:1018DC0042F40052DA600123286485F83D3070BD73
:1018EC00FFF7E2F8D1E7012070BD00BF00380140DE
:1018FC0000B591B02822002106A800F02FFC14227C
:10190C00002101A800F02AFC0223069301230A936C
:10191C00102306A80B93FEF74FFE00210F2301A8FE
:10192C0001930291039104910591FFF71FF811B0F7
:10193C005DF804FB84460520B2FBF0F02DE9F0477E
:10194C000B46FF25104480B25C1AA04207DC00262F
:10195C004FF0010E3346964204DBBDE8F08703F8E6
:10196C00015BF1E7DC0803F007050EFA05F70D5DE6
:10197C0003F10A0825EA070501270D559D1CADB298
:10198C001FFA88F81CF806906C1EA4B217EA090F0F
:10199C004FEAD4091FFA89F911F809A004F00704D9
:1019AC0005F101050EFA04F4ADB214BF44EA0A04C1
:1019BC002AEA04047F00A84501F80940FFB2E1D1EE
:1019CC0009339BB2DC080D5D03F007030EFA03F339
:1019DC002B430B5501364346BDE700004FF0100971
:1019EC002DE9804899B0FEF7ABFBFFF781FF4A4623
:1019FC00002111A800F0B2FB964B4FF400519A69EC
:101A0C00954842EA09029A619A69002402EA09029D
:101A1C000392039A9A69022742F004029A619A6926
:101A2C004FF0010802F004020492049A9A694FF0F4
:101A3C000C0A42F008029A619B69002203F0080329
:101A4C000593059BFEF7ACFD002221218348FEF790
:101A5C00A7FD00224FF4C0418148FEF7A1FD4FF4D1
:101A6C00005311A97C4811931394CDF84880149716
:101A7C00FEF7B4FC212311A9784811931394CDF8E7
:101A8C0048801497FEF7AAFC11A974481294139479
:101A9C001197FEF7A3FC4FF4C04311A970481193A2
:101AAC001394CDF848801497FEF798FC4FF470739C
:101ABC0011A96B48119312941394FEF78FFC4FF4F9
:101ACC00E133684E684A304686E80C00B460F46036
:101ADC003461B461F461C6F814A0FFF75FFD63488C
:101AEC00634B846080E80802C4600461446104763E
:101AFC0044768476C47604774477FEF757FB214608
:101B0C004A4608A800F02AFB214614220CA800F033
:101B1C0025FB1C22214611A80694079400F01EFBFD
:101B2C0044F62063534D5449284685E80A004FF487
:101B3C007A73AC60EB602C61AC61FFF7CBFA4FF4BD
:101B4C00805308A928460893FFF7B4FB2846FFF7F3
:101B5C00DBFA08212846FFF7F1FA4FF0600B062359
:101B6C000CA928460C930E941094CDF834B0FFF7C2
:101B7C0087FC06A9284606940794FFF7A8FC4FF4A7
:101B8C007A63224611A92846129313941594CDF822
:101B9C0044B0FFF723FB284600F052F9374D384884
:101BAC00384B846080E828004FF48073C460046173
:101BBC008461C4610362C0F814A0FFF72DFE4FF4DA
:101BCC00827E3148314B802580E808404FF4007309
:101BDC0083611823C3610A238460C362C4604461B7
:101BEC000562446284620761FEF7E5FF42462849BC
:101BFC003046FFF701FD04238DF8463020230822E0
:101C0C008DF849304023234911A8ADF84C408DF88C
:101C1C004B508DF844808DF845708DF847208DF829
:101C2C0048908DF84A30FFF785FE0D4E1A4D194C31
:101C3C004FF400513046FEF7B8FC4FF4FA70FEF743
:101C4C00A3FA32232A46009321460A230E48FEF7B4
:101C5C00EDFFEDE7001002400010014000080140CC
:101C6C00000C0140F80200200038014080020020E6
:101C7C0000640040B40200200004004020A10700D2
:101C8C009C03002000440040E00B00200030014089
:101C9C00F402002028010020280000200268034BD9
:101CAC009A4201D1FEF75EBA704700BF002C01408A
:101CBC000E4B82B09A6942F001029A619A6902F065
:101CCC0001020092009ADA6942F08052DA61DB6913
:101CDC00074A03F080530193019B536823F0E063A0
:101CEC0043F00073536002B0704700BF0010024015
:101CFC000000014010B5044686B01022002102A855
:101D0C0000F02CFA2268154B9A4225D103F5D633F4
:101D1C00DA6902A942F00072DA61DA69104802F05D
:101D2C0000720092009A9A6942F004029A619B69CF
:101D3C0003F004030193019B4FF400630293FEF73D
:101D4C004DFB4FF48053029302230393032302A908
:101D5C0003480593FEF742FB06B010BD006400403B
:101D6C000008014030B51024054687B022460021FA
:101D7C0002A800F0F3F92A68184B9A422CD103F50B
:101D8C0060439A6902A942F480529A619A69144894
:101D9C0002F480520092009A9A6942F008029A6109
:101DAC009B6903F008030193019B282302930223F0
:101DBC00039303230593FEF711FB002302A90848A4
:101DCC00039304930294FEF709FB064A536843F00D
:101DDC00E06343F00103536007B030BD00300140B5
:101DEC00000C01400000014010B5044686B01022E2
:101DFC00002102A800F0B2F922680F4B9A4219D1C7
:101E0C0003F50333DA6902A942F00202DA61DA69F6
:101E1C000A4802F002020092009A9A6942F0040207
:101E2C009A619B6903F004030193019B8023029345
:101E3C00FEF7D4FA06B010BD0004004000080140C3
:101E4C0010B5044686B01022002102A800F086F9D5
:101E5C0022680C4B9A4213D103F503339A6902A9F9
:101E6C0042F004029A619B69074803F00403019352
:101E7C00019B40230293022303930593FEF7AEFAD2
:101E8C0006B010BD000400400008014010B5044627
:101E9C0086B01022002102A800F060F922681B4BCA
:101EAC009A4230D103F558439A6902A942F4804210
:101EBC009A619A69164802F480420092009A9A69D3
:101ECC00002442F004029A619B6903F0040301931D
:101EDC00019B4FF400730293022303930323059396
:101EEC00FEF77CFA4FF4806302A90948029303942D
:101EFC000494FEF773FA252022462146FEF7E4F9F6
:101F0C002520FEF715FA06B010BD00BF00380140C1
:101F1C000008014010B5044686B01022002102A82A
:101F2C0000F01CF922681A4B9A422FD103F5E633C4
:101F3C00DA6902A942F40032DA61DA69154802F46E
:101F4C0000320092009A9A69002442F004029A61CD
:101F5C009B6903F004030193019B14230293022356
:101F6C00039303230593FEF739FA082309480DEB75
:101F7C000301029303940494FEF730FA26202246C0
:101F8C002146FEF7A1F92620FEF7D2F906B010BDC6
:101F9C00004400400008014010B5014688B0002202
:101FAC001920FEF791F91920FEF7C2F9144B01A97B
:101FBC009A6903A842F400629A619B69114C03F47C
:101FCC0000630293029BFEF78FFDFEF77DFD0E4B27
:101FDC00236040F2E733E3600C4BB0FBF3F00023DB
:101FEC000138606020462361A360FFF773F820B9C5
:101FFC002046FEF77FFF08B010BD0120FBE700BFB5
:10200C0000100240F00D0020002C014040420F0057
:10201C007047FEE7FEE7FEE7FEE770477047704744
:10202C000148FEF77DBF00BFF00D00200148FFF70F
:10203C004BBB00BFF80200200D4B1B681968DA6817
:10204C004906586912D5520610D5FF225A60094A22
:10205C00138801339BB20A2B01D8138070470023DD
:10206C004FF4804104481380FEF79FBA704700BFBD
:10207C009C03002028020020000C01400F4B1A6822
:10208C0042F001021A6059680D4A0A405A601A68F7
:10209C0022F0847222F480321A601A6822F48022B0
:1020AC001A605A6822F4FE025A604FF41F029A60BA
:1020BC004FF00062034B9A60704700BF0010024063
:1020CC000000FFF800ED00E0002103E00B4B5B5833
:1020DC00435004310A480B4B42189A42F6D30A4A31
:1020EC0002E0002342F8043B084B9A42F9D3FFF775
:1020FC00C5FF00F00FF8FFF771FC7047C021000816
:10210C00000000200C0000200C000020300E0020ED
:10211C00FEE7000070B500250C4E0D4CA41BA4105E
:10212C00A54209D100F022F800250A4E0A4CA41B46
:10213C00A410A54205D170BD56F82530984701353D
:10214C00EEE756F8253098470135F2E7B82100083C
:10215C00B8210008B8210008BC210008034602443D
:10216C00934200D1704703F8011BF9E7F8B500BFA3
:10217C00F8BC08BC9E467047F8B500BFF8BC08BC5C
:04218C009E467047B4
:1021900002030405060708090A0B0C0D0E0F1010A8
:1021A0000000000000000000010203040607080907
:0821B00000000000010203041D
:0421B80031010008E9
:0421BC000D01000809
:0C21C00001000000100000000024F400EA
:04000005080020D5FA
:00000001FF
